{
  "abi": [
    {
      "inputs": [
        {
          "internalType": "uint256",
          "name": "_value",
          "type": "uint256"
        },
        {
          "internalType": "address payable",
          "name": "_buyer",
          "type": "address"
        },
        {
          "internalType": "address payable",
          "name": "_seller",
          "type": "address"
        },
        {
          "internalType": "uint256",
          "name": "_adId",
          "type": "uint256"
        },
        {
          "internalType": "address",
          "name": "_escrowFactoryAddr",
          "type": "address"
        }
      ],
      "stateMutability": "nonpayable",
      "type": "constructor"
    },
    {
      "anonymous": false,
      "inputs": [
        {
          "indexed": false,
          "internalType": "string",
          "name": "results",
          "type": "string"
        }
      ],
      "name": "DisputeFundsSent",
      "type": "event"
    },
    {
      "anonymous": false,
      "inputs": [
        {
          "indexed": false,
          "internalType": "string",
          "name": "result",
          "type": "string"
        }
      ],
      "name": "FundsDeposited",
      "type": "event"
    },
    {
      "anonymous": false,
      "inputs": [
        {
          "indexed": false,
          "internalType": "string",
          "name": "results",
          "type": "string"
        }
      ],
      "name": "SentFundsBuyer",
      "type": "event"
    },
    {
      "inputs": [],
      "name": "adId",
      "outputs": [
        {
          "internalType": "uint256",
          "name": "",
          "type": "uint256"
        }
      ],
      "stateMutability": "view",
      "type": "function"
    },
    {
      "inputs": [
        {
          "internalType": "address",
          "name": "",
          "type": "address"
        }
      ],
      "name": "balances",
      "outputs": [
        {
          "internalType": "uint256",
          "name": "",
          "type": "uint256"
        }
      ],
      "stateMutability": "view",
      "type": "function"
    },
    {
      "inputs": [],
      "name": "buyer",
      "outputs": [
        {
          "internalType": "address payable",
          "name": "",
          "type": "address"
        }
      ],
      "stateMutability": "view",
      "type": "function"
    },
    {
      "inputs": [],
      "name": "depositFunds",
      "outputs": [],
      "stateMutability": "payable",
      "type": "function"
    },
    {
      "inputs": [
        {
          "internalType": "string",
          "name": "winner",
          "type": "string"
        }
      ],
      "name": "disputeTransfer",
      "outputs": [],
      "stateMutability": "nonpayable",
      "type": "function"
    },
    {
      "inputs": [],
      "name": "escrowFactoryAddr",
      "outputs": [
        {
          "internalType": "address",
          "name": "",
          "type": "address"
        }
      ],
      "stateMutability": "view",
      "type": "function"
    },
    {
      "inputs": [],
      "name": "escrowFactoryContract",
      "outputs": [
        {
          "internalType": "contract EscrowFactoryContract",
          "name": "",
          "type": "address"
        }
      ],
      "stateMutability": "view",
      "type": "function"
    },
    {
      "inputs": [],
      "name": "getBalance",
      "outputs": [
        {
          "internalType": "uint256",
          "name": "",
          "type": "uint256"
        }
      ],
      "stateMutability": "view",
      "type": "function"
    },
    {
      "inputs": [],
      "name": "seller",
      "outputs": [
        {
          "internalType": "address payable",
          "name": "",
          "type": "address"
        }
      ],
      "stateMutability": "view",
      "type": "function"
    },
    {
      "inputs": [],
      "name": "state",
      "outputs": [
        {
          "internalType": "enum EscrowContract.State",
          "name": "",
          "type": "uint8"
        }
      ],
      "stateMutability": "view",
      "type": "function"
    },
    {
      "inputs": [],
      "name": "transferBuyer",
      "outputs": [],
      "stateMutability": "nonpayable",
      "type": "function"
    },
    {
      "inputs": [],
      "name": "usdtAddress",
      "outputs": [
        {
          "internalType": "address",
          "name": "",
          "type": "address"
        }
      ],
      "stateMutability": "view",
      "type": "function"
    },
    {
      "inputs": [],
      "name": "value",
      "outputs": [
        {
          "internalType": "uint256",
          "name": "",
          "type": "uint256"
        }
      ],
      "stateMutability": "view",
      "type": "function"
    }
  ],
  "bytecode": {
    "object": "0x608060405234801561001057600080fd5b50604051610a0c380380610a0c83398101604081905261002f9161009c565b600594909455600280546001600160a01b039485166001600160a01b0319918216179091556003805493851693821693909317909255600455600080549290931691161790556006805460ff191690556100fd565b6001600160a01b038116811461009957600080fd5b50565b600080600080600060a086880312156100b457600080fd5b8551945060208601516100c681610084565b60408701519094506100d781610084565b6060870151608088015191945092506100ef81610084565b809150509295509295909350565b6109008061010c6000396000f3fe6080604052600436106100c25760003560e01c80637150d8ae1161007f578063c19d93fb11610059578063c19d93fb1461020b578063cbd76c3514610232578063e2c41dbc14610248578063f4ad96c81461025057600080fd5b80637150d8ae146101a65780637b9dd8fc146101c65780639ab4a445146101e657600080fd5b806308551a53146100c757806312065fe0146101045780631891e3e11461012157806327e235e3146101415780633fa4f2451461016e57806346f2007214610184575b600080fd5b3480156100d357600080fd5b506003546100e7906001600160a01b031681565b6040516001600160a01b0390911681526020015b60405180910390f35b34801561011057600080fd5b50475b6040519081526020016100fb565b34801561012d57600080fd5b506001546100e7906001600160a01b031681565b34801561014d57600080fd5b5061011361015c366004610773565b60076020526000908152604090205481565b34801561017a57600080fd5b5061011360055481565b34801561019057600080fd5b506101a461019f366004610797565b610265565b005b3480156101b257600080fd5b506002546100e7906001600160a01b031681565b3480156101d257600080fd5b506000546100e7906001600160a01b031681565b3480156101f257600080fd5b506006546100e79061010090046001600160a01b031681565b34801561021757600080fd5b506006546102259060ff1681565b6040516100fb919061081f565b34801561023e57600080fd5b5061011360045481565b6101a4610498565b34801561025c57600080fd5b506101a461052d565b60018060065460ff16600381111561027f5761027f610809565b1461028957600080fd5b6102e183838080601f016020809104026020016040519081016040528093929190818152602001838380828437600092019190915250506040805180820190915260018152603160f91b602082015291506107029050565b156103c8576002546001600160a01b03166103175760405162461bcd60e51b815260040161030e90610847565b60405180910390fd5b6002546040516001600160a01b03909116904780156108fc02916000818181858888f19350505050158015610350573d6000803e3d6000fd5b506006805460ff19166003179055604080516020808252601b908201527f646973707574652066756e64732073656e7420746f2062757965720000000000918101919091527f6ae4d86b2cdfd53adf22422998a49bdd285d0e9f99824c5f30095e01fd3fa8c8906060015b60405180910390a1505050565b6003546001600160a01b03166103f05760405162461bcd60e51b815260040161030e90610847565b6003546040516001600160a01b03909116904780156108fc02916000818181858888f19350505050158015610429573d6000803e3d6000fd5b506006805460ff19166003179055604080516020808252601c908201527f646973707574652066756e64732073656e7420746f2073656c6c657200000000918101919091527f6ae4d86b2cdfd53adf22422998a49bdd285d0e9f99824c5f30095e01fd3fa8c8906060016103bb565b60008060065460ff1660038111156104b2576104b2610809565b146104bc57600080fd5b6006805460ff19166001179055604080516020808252601f908201527f46756e6473204465706f736974656420696e2074686520436f6e7472616374008183015290517f5d1ec109bba98832324a0d7c46f8a1b75d4e25d5bddc4df466f646cea812712c916060908290030190a150565b600054604080516370520e7960e11b815290516001600160a01b0390921691829163e0a41cf29160048083019260209291908290030181865afa158015610578573d6000803e3d6000fd5b505050506040513d601f19601f8201168201806040525081019061059c919061087e565b6001600160a01b0316336001600160a01b0316146106145760405162461bcd60e51b815260206004820152602f60248201527f4f6e6c7920746865206c697374696e6720616464726573732063616e2063616c60448201526e36103a3434b990333ab731ba34b7b760891b606482015260840161030e565b60018060065460ff16600381111561062e5761062e610809565b1461063857600080fd5b6002546001600160a01b03166106605760405162461bcd60e51b815260040161030e90610847565b6002546040516001600160a01b03909116904780156108fc02916000818181858888f19350505050158015610699573d6000803e3d6000fd5b506006805460ff1916600317905560408051602080825260139082015272233ab732399029b2b73a103a3790213abcb2b960691b8183015290517f8786739532257c893f2d27848b7841af3919914b48573a35e334d4ea69b53fdf916060908290030190a15050565b600081604051602001610715919061089b565b604051602081830303815290604052805190602001208360405160200161073c919061089b565b6040516020818303038152906040528051906020012014905092915050565b6001600160a01b038116811461077057600080fd5b50565b60006020828403121561078557600080fd5b81356107908161075b565b9392505050565b600080602083850312156107aa57600080fd5b823567ffffffffffffffff808211156107c257600080fd5b818501915085601f8301126107d657600080fd5b8135818111156107e557600080fd5b8660208285010111156107f757600080fd5b60209290920196919550909350505050565b634e487b7160e01b600052602160045260246000fd5b602081016004831061084157634e487b7160e01b600052602160045260246000fd5b91905290565b60208082526019908201527f496e76616c696420726563697069656e74206164647265737300000000000000604082015260600190565b60006020828403121561089057600080fd5b81516107908161075b565b6000825160005b818110156108bc57602081860181015185830152016108a2565b50600092019182525091905056fea264697066735822122097a302b3602e7f338231f96ed399f46d233912929d029c2c12ea94fd4d4f94bf64736f6c63430008130033",
    "linkReferences": {}
  },
  "methodIdentifiers": {
    "adId()": "cbd76c35",
    "balances(address)": "27e235e3",
    "buyer()": "7150d8ae",
    "depositFunds()": "e2c41dbc",
    "disputeTransfer(string)": "46f20072",
    "escrowFactoryAddr()": "7b9dd8fc",
    "escrowFactoryContract()": "1891e3e1",
    "getBalance()": "12065fe0",
    "seller()": "08551a53",
    "state()": "c19d93fb",
    "transferBuyer()": "f4ad96c8",
    "usdtAddress()": "9ab4a445",
    "value()": "3fa4f245"
  },
  "id": 25
}