{
  "abi": [
    {
      "inputs": [
        {
          "internalType": "address",
          "name": "_disputeContract",
          "type": "address"
        },
        {
          "internalType": "address",
          "name": "_listingContract",
          "type": "address"
        }
      ],
      "stateMutability": "nonpayable",
      "type": "constructor"
    },
    {
      "inputs": [
        {
          "internalType": "uint256",
          "name": "_adId",
          "type": "uint256"
        }
      ],
      "name": "escrowExists",
      "type": "error"
    },
    {
      "inputs": [
        {
          "internalType": "uint256",
          "name": "",
          "type": "uint256"
        }
      ],
      "name": "adToEscrow",
      "outputs": [
        {
          "internalType": "address",
          "name": "",
          "type": "address"
        }
      ],
      "stateMutability": "view",
      "type": "function"
    },
    {
      "inputs": [
        {
          "internalType": "address",
          "name": "disputeAddress",
          "type": "address"
        }
      ],
      "name": "changeDispute",
      "outputs": [],
      "stateMutability": "nonpayable",
      "type": "function"
    },
    {
      "inputs": [
        {
          "internalType": "address",
          "name": "listingAddress",
          "type": "address"
        }
      ],
      "name": "changeListing",
      "outputs": [],
      "stateMutability": "nonpayable",
      "type": "function"
    },
    {
      "inputs": [
        {
          "internalType": "uint256",
          "name": "_value",
          "type": "uint256"
        },
        {
          "internalType": "address payable",
          "name": "_seller",
          "type": "address"
        },
        {
          "internalType": "address payable",
          "name": "_buyer",
          "type": "address"
        },
        {
          "internalType": "uint256",
          "name": "_adId",
          "type": "uint256"
        }
      ],
      "name": "createEscrow",
      "outputs": [],
      "stateMutability": "nonpayable",
      "type": "function"
    },
    {
      "inputs": [
        {
          "internalType": "uint256",
          "name": "",
          "type": "uint256"
        }
      ],
      "name": "deployedEscrows",
      "outputs": [
        {
          "internalType": "address",
          "name": "",
          "type": "address"
        }
      ],
      "stateMutability": "view",
      "type": "function"
    },
    {
      "inputs": [],
      "name": "disputeContract",
      "outputs": [
        {
          "internalType": "address",
          "name": "",
          "type": "address"
        }
      ],
      "stateMutability": "view",
      "type": "function"
    },
    {
      "inputs": [],
      "name": "getDeployedEscrows",
      "outputs": [
        {
          "internalType": "address[]",
          "name": "",
          "type": "address[]"
        }
      ],
      "stateMutability": "view",
      "type": "function"
    },
    {
      "inputs": [],
      "name": "getDispute",
      "outputs": [
        {
          "internalType": "address",
          "name": "",
          "type": "address"
        }
      ],
      "stateMutability": "view",
      "type": "function"
    },
    {
      "inputs": [],
      "name": "getListing",
      "outputs": [
        {
          "internalType": "address",
          "name": "",
          "type": "address"
        }
      ],
      "stateMutability": "view",
      "type": "function"
    },
    {
      "inputs": [],
      "name": "listingContract",
      "outputs": [
        {
          "internalType": "address",
          "name": "",
          "type": "address"
        }
      ],
      "stateMutability": "view",
      "type": "function"
    },
    {
      "inputs": [
        {
          "internalType": "address",
          "name": "_disputeAddress",
          "type": "address"
        }
      ],
      "name": "setDispute",
      "outputs": [
        {
          "internalType": "address",
          "name": "",
          "type": "address"
        }
      ],
      "stateMutability": "nonpayable",
      "type": "function"
    },
    {
      "inputs": [
        {
          "internalType": "address",
          "name": "_listingAddress",
          "type": "address"
        }
      ],
      "name": "setListing",
      "outputs": [
        {
          "internalType": "address",
          "name": "",
          "type": "address"
        }
      ],
      "stateMutability": "nonpayable",
      "type": "function"
    }
  ],
  "bytecode": {
    "object": "0x608060405234801561001057600080fd5b5060405161108438038061108483398101604081905261002f9161007c565b600180546001600160a01b039384166001600160a01b031991821617909155600280549290931691161790556100af565b80516001600160a01b038116811461007757600080fd5b919050565b6000806040838503121561008f57600080fd5b61009883610060565b91506100a660208401610060565b90509250929050565b610fc6806100be6000396000f3fe608060405234801561001057600080fd5b50600436106100b45760003560e01c8063960a710111610071578063960a710114610198578063b1ac7294146101ad578063cbf5c5c5146101dd578063d51653271461020d578063e0a41cf214610220578063fe51c9311461023157600080fd5b80632d743c80146100b9578063323f1142146100ff5780634010b84e14610112578063420d0463146101255780638735c4da14610155578063948b557a14610187575b600080fd5b6100e26100c7366004610410565b6003602052600090815260409020546001600160a01b031681565b6040516001600160a01b0390911681526020015b60405180910390f35b6100e261010d366004610410565b610244565b6001546100e2906001600160a01b031681565b6100e2610133366004610441565b600280546001600160a01b039092166001600160a01b03199092168217905590565b610185610163366004610441565b600280546001600160a01b0319166001600160a01b0392909216919091179055565b005b6001546001600160a01b03166100e2565b6101a061026e565b6040516100f69190610465565b6100e26101bb366004610441565b600180546001600160a01b039092166001600160a01b03199092168217905590565b6101856101eb366004610441565b600180546001600160a01b0319166001600160a01b0392909216919091179055565b6002546100e2906001600160a01b031681565b6002546001600160a01b03166100e2565b61018561023f3660046104b2565b6102d0565b6000818154811061025457600080fd5b6000918252602090912001546001600160a01b0316905081565b606060008054806020026020016040519081016040528092919081815260200182805480156102c657602002820191906000526020600020905b81546001600160a01b031681526001909101906020018083116102a8575b5050505050905090565b6000818152600360205260409020546001600160a01b03161561030e57604051638e0eac0f60e01b8152600481018290526024015b60405180910390fd5b816001600160a01b0316836001600160a01b03160361034357604051638e0eac0f60e01b815260048101829052602401610305565b6000848385843060405161035690610403565b9485526001600160a01b0393841660208601529183166040850152606084015216608082015260a001604051809103906000f08015801561039b573d6000803e3d6000fd5b50600080546001810182557f290decd9548b62a8d60345a988386fc84ba6bc95484008f6362f93160ef3e5630180546001600160a01b039093166001600160a01b03199384168117909155938152600360205260409020805490911690921790915550505050565b610a96806104fb83390190565b60006020828403121561042257600080fd5b5035919050565b6001600160a01b038116811461043e57600080fd5b50565b60006020828403121561045357600080fd5b813561045e81610429565b9392505050565b6020808252825182820181905260009190848201906040850190845b818110156104a65783516001600160a01b031683529284019291840191600101610481565b50909695505050505050565b600080600080608085870312156104c857600080fd5b8435935060208501356104da81610429565b925060408501356104ea81610429565b939692955092936060013592505056fe608060405234801561001057600080fd5b50604051610a96380380610a9683398101604081905261002f9161009c565b600594909455600280546001600160a01b039485166001600160a01b0319918216179091556003805493851693821693909317909255600455600080549290931691161790556006805460ff191690556100fd565b6001600160a01b038116811461009957600080fd5b50565b600080600080600060a086880312156100b457600080fd5b8551945060208601516100c681610084565b60408701519094506100d781610084565b6060870151608088015191945092506100ef81610084565b809150509295509295909350565b61098a8061010c6000396000f3fe6080604052600436106100ab5760003560e01c80637150d8ae116100645780637150d8ae146101bc5780637b9dd8fc146101dc5780639ab4a445146101fc578063c19d93fb14610221578063cbd76c3514610248578063d06a00851461025e57600080fd5b806308551a53146100fc5780631891e3e114610139578063213c4183146101595780633c68eb81146101635780633fa4f2451461017857806346f200721461019c57600080fd5b366100f7576002546005546040519081526001600160a01b03909116907f8e47b87b0ef542cdfa1659c551d88bad38aa7f452d2bbb349ab7530dfec8be8f9060200160405180910390a2005b600080fd5b34801561010857600080fd5b5060035461011c906001600160a01b031681565b6040516001600160a01b0390911681526020015b60405180910390f35b34801561014557600080fd5b5060015461011c906001600160a01b031681565b610161610266565b005b34801561016f57600080fd5b506101616102ad565b34801561018457600080fd5b5061018e60055481565b604051908152602001610130565b3480156101a857600080fd5b506101616101b73660046107d7565b61033f565b3480156101c857600080fd5b5060025461011c906001600160a01b031681565b3480156101e857600080fd5b5060005461011c906001600160a01b031681565b34801561020857600080fd5b5060065461011c9061010090046001600160a01b031681565b34801561022d57600080fd5b5060065461023b9060ff1681565b604051610130919061085f565b34801561025457600080fd5b5061018e60045481565b6101616105db565b6002546005546040519081526001600160a01b03909116907f8e47b87b0ef542cdfa1659c551d88bad38aa7f452d2bbb349ab7530dfec8be8f9060200160405180910390a2565b6002546001600160a01b03166102de5760405162461bcd60e51b81526004016102d590610887565b60405180910390fd5b6005544710156103005760405162461bcd60e51b81526004016102d5906108be565b6002546005546040516001600160a01b039092169181156108fc0291906000818181858888f1935050505015801561033c573d6000803e3d6000fd5b50565b60005460408051634a45aabd60e11b815290516001600160a01b0390921691829163948b557a9160048083019260209291908290030181865afa15801561038a573d6000803e3d6000fd5b505050506040513d601f19601f820116820180604052508101906103ae91906108f5565b6001600160a01b0316336001600160a01b0316146104265760405162461bcd60e51b815260206004820152602f60248201527f4f6e6c7920746865206469737075746520616464726573732063616e2063616c60448201526e36103a3434b990333ab731ba34b7b760891b60648201526084016102d5565b60018060065460ff16600381111561044057610440610849565b1461044a57600080fd5b6104a284848080601f016020809104026020016040519081016040528093929190818152602001838380828437600092019190915250506040805180820190915260018152607360f81b6020820152915061077e9050565b15610540576003546001600160a01b03166104cf5760405162461bcd60e51b81526004016102d590610887565b6005544710156104f15760405162461bcd60e51b81526004016102d5906108be565b6003546005546040516001600160a01b039092169181156108fc0291906000818181858888f1935050505015801561052d573d6000803e3d6000fd5b506006805460ff191660031790556105d5565b6002546001600160a01b03166105685760405162461bcd60e51b81526004016102d590610887565b60055447101561058a5760405162461bcd60e51b81526004016102d5906108be565b6002546005546040516001600160a01b039092169181156108fc0291906000818181858888f193505050501580156105c6573d6000803e3d6000fd5b506006805460ff191660031790555b50505050565b600054604080516370520e7960e11b815290516001600160a01b0390921691829163e0a41cf29160048083019260209291908290030181865afa158015610626573d6000803e3d6000fd5b505050506040513d601f19601f8201168201806040525081019061064a91906108f5565b6001600160a01b0316336001600160a01b0316146106c25760405162461bcd60e51b815260206004820152602f60248201527f4f6e6c7920746865206c697374696e6720616464726573732063616e2063616c60448201526e36103a3434b990333ab731ba34b7b760891b60648201526084016102d5565b60018060065460ff1660038111156106dc576106dc610849565b146106e657600080fd5b6002546001600160a01b031661070e5760405162461bcd60e51b81526004016102d590610887565b6005544710156107305760405162461bcd60e51b81526004016102d5906108be565b6002546005546040516001600160a01b039092169181156108fc0291906000818181858888f1935050505015801561076c573d6000803e3d6000fd5b50506006805460ff1916600317905550565b6000816040516020016107919190610925565b60405160208183030381529060405280519060200120836040516020016107b89190610925565b6040516020818303038152906040528051906020012014905092915050565b600080602083850312156107ea57600080fd5b823567ffffffffffffffff8082111561080257600080fd5b818501915085601f83011261081657600080fd5b81358181111561082557600080fd5b86602082850101111561083757600080fd5b60209290920196919550909350505050565b634e487b7160e01b600052602160045260246000fd5b602081016004831061088157634e487b7160e01b600052602160045260246000fd5b91905290565b60208082526019908201527f496e76616c696420726563697069656e74206164647265737300000000000000604082015260600190565b6020808252601d908201527f496e73756666696369656e7420636f6e74726163742062616c616e6365000000604082015260600190565b60006020828403121561090757600080fd5b81516001600160a01b038116811461091e57600080fd5b9392505050565b6000825160005b81811015610946576020818601810151858301520161092c565b50600092019182525091905056fea2646970667358221220293bd770ee3e44b14579a45b6fae0dde20cee3aeafd053911562b24cb392784464736f6c63430008130033a2646970667358221220fad328917c0701b79b6c513aef6797c29653bcd502dbdd1424bf8d07196c7c9064736f6c63430008130033",
    "linkReferences": {}
  },
  "methodIdentifiers": {
    "adToEscrow(uint256)": "2d743c80",
    "changeDispute(address)": "cbf5c5c5",
    "changeListing(address)": "8735c4da",
    "createEscrow(uint256,address,address,uint256)": "fe51c931",
    "deployedEscrows(uint256)": "323f1142",
    "disputeContract()": "4010b84e",
    "getDeployedEscrows()": "960a7101",
    "getDispute()": "948b557a",
    "getListing()": "e0a41cf2",
    "listingContract()": "d5165327",
    "setDispute(address)": "b1ac7294",
    "setListing(address)": "420d0463"
  },
  "id": 21
}