{
  "abi": [
    {
      "inputs": [
        {
          "internalType": "uint256",
          "name": "_value",
          "type": "uint256"
        },
        {
          "internalType": "address payable",
          "name": "_buyer",
          "type": "address"
        },
        {
          "internalType": "address payable",
          "name": "_seller",
          "type": "address"
        },
        {
          "internalType": "uint256",
          "name": "_adId",
          "type": "uint256"
        },
        {
          "internalType": "address",
          "name": "_escrowFactoryAddr",
          "type": "address"
        }
      ],
      "stateMutability": "nonpayable",
      "type": "constructor"
    },
    {
      "anonymous": false,
      "inputs": [
        {
          "indexed": false,
          "internalType": "string",
          "name": "results",
          "type": "string"
        }
      ],
      "name": "DisputeFundsSent",
      "type": "event"
    },
    {
      "anonymous": false,
      "inputs": [
        {
          "indexed": false,
          "internalType": "string",
          "name": "result",
          "type": "string"
        }
      ],
      "name": "FundsDeposited",
      "type": "event"
    },
    {
      "anonymous": false,
      "inputs": [
        {
          "indexed": false,
          "internalType": "string",
          "name": "results",
          "type": "string"
        }
      ],
      "name": "SentFundsBuyer",
      "type": "event"
    },
    {
      "inputs": [],
      "name": "adId",
      "outputs": [
        {
          "internalType": "uint256",
          "name": "",
          "type": "uint256"
        }
      ],
      "stateMutability": "view",
      "type": "function"
    },
    {
      "inputs": [
        {
          "internalType": "address",
          "name": "",
          "type": "address"
        }
      ],
      "name": "balances",
      "outputs": [
        {
          "internalType": "uint256",
          "name": "",
          "type": "uint256"
        }
      ],
      "stateMutability": "view",
      "type": "function"
    },
    {
      "inputs": [],
      "name": "buyer",
      "outputs": [
        {
          "internalType": "address payable",
          "name": "",
          "type": "address"
        }
      ],
      "stateMutability": "view",
      "type": "function"
    },
    {
      "inputs": [],
      "name": "depositFunds",
      "outputs": [],
      "stateMutability": "payable",
      "type": "function"
    },
    {
      "inputs": [
        {
          "internalType": "string",
          "name": "winner",
          "type": "string"
        }
      ],
      "name": "disputeTransfer",
      "outputs": [],
      "stateMutability": "nonpayable",
      "type": "function"
    },
    {
      "inputs": [],
      "name": "escrowFactoryAddr",
      "outputs": [
        {
          "internalType": "address",
          "name": "",
          "type": "address"
        }
      ],
      "stateMutability": "view",
      "type": "function"
    },
    {
      "inputs": [],
      "name": "escrowFactoryContract",
      "outputs": [
        {
          "internalType": "contract EscrowFactoryContract",
          "name": "",
          "type": "address"
        }
      ],
      "stateMutability": "view",
      "type": "function"
    },
    {
      "inputs": [],
      "name": "getBalance",
      "outputs": [
        {
          "internalType": "uint256",
          "name": "",
          "type": "uint256"
        }
      ],
      "stateMutability": "view",
      "type": "function"
    },
    {
      "inputs": [],
      "name": "seller",
      "outputs": [
        {
          "internalType": "address payable",
          "name": "",
          "type": "address"
        }
      ],
      "stateMutability": "view",
      "type": "function"
    },
    {
      "inputs": [],
      "name": "state",
      "outputs": [
        {
          "internalType": "enum EscrowContract.State",
          "name": "",
          "type": "uint8"
        }
      ],
      "stateMutability": "view",
      "type": "function"
    },
    {
      "inputs": [],
      "name": "transferBuyer",
      "outputs": [],
      "stateMutability": "nonpayable",
      "type": "function"
    },
    {
      "inputs": [],
      "name": "usdtAddress",
      "outputs": [
        {
          "internalType": "address",
          "name": "",
          "type": "address"
        }
      ],
      "stateMutability": "view",
      "type": "function"
    },
    {
      "inputs": [],
      "name": "value",
      "outputs": [
        {
          "internalType": "uint256",
          "name": "",
          "type": "uint256"
        }
      ],
      "stateMutability": "view",
      "type": "function"
    }
  ],
  "bytecode": {
    "object": "0x608060405234801561001057600080fd5b50604051610af2380380610af283398101604081905261002f9161009c565b600594909455600280546001600160a01b039485166001600160a01b0319918216179091556003805493851693821693909317909255600455600080549290931691161790556006805460ff191690556100fd565b6001600160a01b038116811461009957600080fd5b50565b600080600080600060a086880312156100b457600080fd5b8551945060208601516100c681610084565b60408701519094506100d781610084565b6060870151608088015191945092506100ef81610084565b809150509295509295909350565b6109e68061010c6000396000f3fe6080604052600436106100c25760003560e01c80637150d8ae1161007f578063c19d93fb11610059578063c19d93fb1461020b578063cbd76c3514610232578063e2c41dbc14610248578063f4ad96c81461025057600080fd5b80637150d8ae146101a65780637b9dd8fc146101c65780639ab4a445146101e657600080fd5b806308551a53146100c757806312065fe0146101045780631891e3e11461012157806327e235e3146101415780633fa4f2451461016e57806346f2007214610184575b600080fd5b3480156100d357600080fd5b506003546100e7906001600160a01b031681565b6040516001600160a01b0390911681526020015b60405180910390f35b34801561011057600080fd5b50475b6040519081526020016100fb565b34801561012d57600080fd5b506001546100e7906001600160a01b031681565b34801561014d57600080fd5b5061011361015c366004610859565b60076020526000908152604090205481565b34801561017a57600080fd5b5061011360055481565b34801561019057600080fd5b506101a461019f36600461087d565b610265565b005b3480156101b257600080fd5b506002546100e7906001600160a01b031681565b3480156101d257600080fd5b506000546100e7906001600160a01b031681565b3480156101f257600080fd5b506006546100e79061010090046001600160a01b031681565b34801561021757600080fd5b506006546102259060ff1681565b6040516100fb9190610905565b34801561023e57600080fd5b5061011360045481565b6101a461057e565b34801561025c57600080fd5b506101a4610613565b60005460408051634a45aabd60e11b815290516001600160a01b0390921691829163948b557a9160048083019260209291908290030181865afa1580156102b0573d6000803e3d6000fd5b505050506040513d601f19601f820116820180604052508101906102d4919061092d565b6001600160a01b0316336001600160a01b0316146103515760405162461bcd60e51b815260206004820152602f60248201527f4f6e6c7920746865206469737075746520616464726573732063616e2063616c60448201526e36103a3434b990333ab731ba34b7b760891b60648201526084015b60405180910390fd5b60018060065460ff16600381111561036b5761036b6108ef565b1461037557600080fd5b6103cd84848080601f016020809104026020016040519081016040528093929190818152602001838380828437600092019190915250506040805180820190915260018152603160f91b602082015291506107e89050565b156104a7576002546001600160a01b03166103fa5760405162461bcd60e51b81526004016103489061094a565b6002546040516001600160a01b03909116904780156108fc02916000818181858888f19350505050158015610433573d6000803e3d6000fd5b506006805460ff19166003179055604080516020808252601b908201527f646973707574652066756e64732073656e7420746f20627579657200000000008183015290517f6ae4d86b2cdfd53adf22422998a49bdd285d0e9f99824c5f30095e01fd3fa8c8916060908290030190a1610578565b6003546001600160a01b03166104cf5760405162461bcd60e51b81526004016103489061094a565b6003546040516001600160a01b03909116904780156108fc02916000818181858888f19350505050158015610508573d6000803e3d6000fd5b506006805460ff19166003179055604080516020808252601c908201527f646973707574652066756e64732073656e7420746f2073656c6c6572000000008183015290517f6ae4d86b2cdfd53adf22422998a49bdd285d0e9f99824c5f30095e01fd3fa8c8916060908290030190a15b50505050565b60008060065460ff166003811115610598576105986108ef565b146105a257600080fd5b6006805460ff19166001179055604080516020808252601f908201527f46756e6473204465706f736974656420696e2074686520436f6e7472616374008183015290517f5d1ec109bba98832324a0d7c46f8a1b75d4e25d5bddc4df466f646cea812712c916060908290030190a150565b600054604080516370520e7960e11b815290516001600160a01b0390921691829163e0a41cf29160048083019260209291908290030181865afa15801561065e573d6000803e3d6000fd5b505050506040513d601f19601f82011682018060405250810190610682919061092d565b6001600160a01b0316336001600160a01b0316146106fa5760405162461bcd60e51b815260206004820152602f60248201527f4f6e6c7920746865206c697374696e6720616464726573732063616e2063616c60448201526e36103a3434b990333ab731ba34b7b760891b6064820152608401610348565b60018060065460ff166003811115610714576107146108ef565b1461071e57600080fd5b6002546001600160a01b03166107465760405162461bcd60e51b81526004016103489061094a565b6002546040516001600160a01b03909116904780156108fc02916000818181858888f1935050505015801561077f573d6000803e3d6000fd5b506006805460ff1916600317905560408051602080825260139082015272233ab732399029b2b73a103a3790213abcb2b960691b8183015290517f8786739532257c893f2d27848b7841af3919914b48573a35e334d4ea69b53fdf916060908290030190a15050565b6000816040516020016107fb9190610981565b60405160208183030381529060405280519060200120836040516020016108229190610981565b6040516020818303038152906040528051906020012014905092915050565b6001600160a01b038116811461085657600080fd5b50565b60006020828403121561086b57600080fd5b813561087681610841565b9392505050565b6000806020838503121561089057600080fd5b823567ffffffffffffffff808211156108a857600080fd5b818501915085601f8301126108bc57600080fd5b8135818111156108cb57600080fd5b8660208285010111156108dd57600080fd5b60209290920196919550909350505050565b634e487b7160e01b600052602160045260246000fd5b602081016004831061092757634e487b7160e01b600052602160045260246000fd5b91905290565b60006020828403121561093f57600080fd5b815161087681610841565b60208082526019908201527f496e76616c696420726563697069656e74206164647265737300000000000000604082015260600190565b6000825160005b818110156109a25760208186018101518583015201610988565b50600092019182525091905056fea26469706673582212207f5acdd661a56f97b8196aff2e91d5581b70f61b569be22dfa84bc3b9643c5d864736f6c63430008130033",
    "linkReferences": {}
  },
  "methodIdentifiers": {
    "adId()": "cbd76c35",
    "balances(address)": "27e235e3",
    "buyer()": "7150d8ae",
    "depositFunds()": "e2c41dbc",
    "disputeTransfer(string)": "46f20072",
    "escrowFactoryAddr()": "7b9dd8fc",
    "escrowFactoryContract()": "1891e3e1",
    "getBalance()": "12065fe0",
    "seller()": "08551a53",
    "state()": "c19d93fb",
    "transferBuyer()": "f4ad96c8",
    "usdtAddress()": "9ab4a445",
    "value()": "3fa4f245"
  },
  "id": 25
}