{
  "abi": [
    {
      "inputs": [
        {
          "internalType": "address",
          "name": "_escrowFactory",
          "type": "address"
        }
      ],
      "stateMutability": "nonpayable",
      "type": "constructor"
    },
    {
      "inputs": [],
      "name": "AmountLessThanZero",
      "type": "error"
    },
    {
      "inputs": [],
      "name": "BankTransferNotVerified",
      "type": "error"
    },
    {
      "inputs": [],
      "name": "NotBuyer",
      "type": "error"
    },
    {
      "inputs": [],
      "name": "NotSeller",
      "type": "error"
    },
    {
      "inputs": [],
      "name": "TradeInProgress",
      "type": "error"
    },
    {
      "inputs": [],
      "name": "TradeNotInProgress",
      "type": "error"
    },
    {
      "inputs": [],
      "name": "TradeNotOpen",
      "type": "error"
    },
    {
      "inputs": [
        {
          "internalType": "uint256",
          "name": "",
          "type": "uint256"
        }
      ],
      "name": "ads",
      "outputs": [
        {
          "internalType": "address",
          "name": "seller",
          "type": "address"
        },
        {
          "internalType": "string",
          "name": "token",
          "type": "string"
        },
        {
          "internalType": "uint256",
          "name": "amount",
          "type": "uint256"
        },
        {
          "internalType": "uint256",
          "name": "price",
          "type": "uint256"
        },
        {
          "internalType": "uint256",
          "name": "duration",
          "type": "uint256"
        },
        {
          "internalType": "string",
          "name": "paymentMethod",
          "type": "string"
        },
        {
          "internalType": "string",
          "name": "name",
          "type": "string"
        },
        {
          "internalType": "string",
          "name": "accountNumber",
          "type": "string"
        },
        {
          "internalType": "enum Listings.State",
          "name": "state",
          "type": "uint8"
        }
      ],
      "stateMutability": "view",
      "type": "function"
    },
    {
      "inputs": [
        {
          "internalType": "uint256",
          "name": "adIndex",
          "type": "uint256"
        }
      ],
      "name": "closeAd",
      "outputs": [],
      "stateMutability": "nonpayable",
      "type": "function"
    },
    {
      "inputs": [
        {
          "internalType": "uint256",
          "name": "",
          "type": "uint256"
        }
      ],
      "name": "confirmedBuyer",
      "outputs": [
        {
          "internalType": "address",
          "name": "",
          "type": "address"
        }
      ],
      "stateMutability": "view",
      "type": "function"
    },
    {
      "inputs": [
        {
          "internalType": "string",
          "name": "_token",
          "type": "string"
        },
        {
          "internalType": "uint256",
          "name": "_amount",
          "type": "uint256"
        },
        {
          "internalType": "uint256",
          "name": "_price",
          "type": "uint256"
        },
        {
          "internalType": "uint256",
          "name": "_duration",
          "type": "uint256"
        },
        {
          "internalType": "string",
          "name": "_paymentMethod",
          "type": "string"
        },
        {
          "internalType": "string",
          "name": "_name",
          "type": "string"
        },
        {
          "internalType": "string",
          "name": "_accountNumber",
          "type": "string"
        }
      ],
      "name": "createAd",
      "outputs": [],
      "stateMutability": "nonpayable",
      "type": "function"
    },
    {
      "inputs": [],
      "name": "escrowFactory",
      "outputs": [
        {
          "internalType": "contract EscrowFactoryContract",
          "name": "",
          "type": "address"
        }
      ],
      "stateMutability": "view",
      "type": "function"
    },
    {
      "inputs": [
        {
          "internalType": "uint256",
          "name": "adIndex",
          "type": "uint256"
        }
      ],
      "name": "getAd",
      "outputs": [
        {
          "components": [
            {
              "internalType": "address",
              "name": "seller",
              "type": "address"
            },
            {
              "internalType": "string",
              "name": "token",
              "type": "string"
            },
            {
              "internalType": "uint256",
              "name": "amount",
              "type": "uint256"
            },
            {
              "internalType": "uint256",
              "name": "price",
              "type": "uint256"
            },
            {
              "internalType": "uint256",
              "name": "duration",
              "type": "uint256"
            },
            {
              "internalType": "string",
              "name": "paymentMethod",
              "type": "string"
            },
            {
              "internalType": "string",
              "name": "name",
              "type": "string"
            },
            {
              "internalType": "string",
              "name": "accountNumber",
              "type": "string"
            },
            {
              "internalType": "enum Listings.State",
              "name": "state",
              "type": "uint8"
            }
          ],
          "internalType": "struct Listings.SellAd",
          "name": "",
          "type": "tuple"
        }
      ],
      "stateMutability": "view",
      "type": "function"
    },
    {
      "inputs": [],
      "name": "getAdCount",
      "outputs": [
        {
          "internalType": "uint256",
          "name": "",
          "type": "uint256"
        }
      ],
      "stateMutability": "view",
      "type": "function"
    },
    {
      "inputs": [
        {
          "internalType": "uint256",
          "name": "page",
          "type": "uint256"
        },
        {
          "internalType": "uint256",
          "name": "perPage",
          "type": "uint256"
        }
      ],
      "name": "getAds",
      "outputs": [
        {
          "components": [
            {
              "internalType": "address",
              "name": "seller",
              "type": "address"
            },
            {
              "internalType": "string",
              "name": "token",
              "type": "string"
            },
            {
              "internalType": "uint256",
              "name": "amount",
              "type": "uint256"
            },
            {
              "internalType": "uint256",
              "name": "price",
              "type": "uint256"
            },
            {
              "internalType": "uint256",
              "name": "duration",
              "type": "uint256"
            },
            {
              "internalType": "string",
              "name": "paymentMethod",
              "type": "string"
            },
            {
              "internalType": "string",
              "name": "name",
              "type": "string"
            },
            {
              "internalType": "string",
              "name": "accountNumber",
              "type": "string"
            },
            {
              "internalType": "enum Listings.State",
              "name": "state",
              "type": "uint8"
            }
          ],
          "internalType": "struct Listings.SellAd[]",
          "name": "",
          "type": "tuple[]"
        }
      ],
      "stateMutability": "view",
      "type": "function"
    },
    {
      "inputs": [
        {
          "internalType": "uint256",
          "name": "adIndex",
          "type": "uint256"
        }
      ],
      "name": "getConfirmedBuyer",
      "outputs": [
        {
          "internalType": "address",
          "name": "",
          "type": "address"
        }
      ],
      "stateMutability": "view",
      "type": "function"
    },
    {
      "inputs": [
        {
          "internalType": "uint256",
          "name": "adIndex",
          "type": "uint256"
        }
      ],
      "name": "getInterestedBuyers",
      "outputs": [
        {
          "internalType": "address[]",
          "name": "",
          "type": "address[]"
        }
      ],
      "stateMutability": "view",
      "type": "function"
    },
    {
      "inputs": [
        {
          "internalType": "uint256",
          "name": "",
          "type": "uint256"
        },
        {
          "internalType": "uint256",
          "name": "",
          "type": "uint256"
        }
      ],
      "name": "interestedBuyers",
      "outputs": [
        {
          "internalType": "address",
          "name": "",
          "type": "address"
        }
      ],
      "stateMutability": "view",
      "type": "function"
    },
    {
      "inputs": [
        {
          "internalType": "address",
          "name": "_escrowFactory",
          "type": "address"
        }
      ],
      "name": "setEscrowFactory",
      "outputs": [],
      "stateMutability": "nonpayable",
      "type": "function"
    },
    {
      "inputs": [
        {
          "internalType": "uint256",
          "name": "adIndex",
          "type": "uint256"
        }
      ],
      "name": "startTrade",
      "outputs": [],
      "stateMutability": "nonpayable",
      "type": "function"
    },
    {
      "inputs": [
        {
          "internalType": "uint256",
          "name": "adIndex",
          "type": "uint256"
        }
      ],
      "name": "verifyBankTransfer",
      "outputs": [],
      "stateMutability": "nonpayable",
      "type": "function"
    }
  ],
  "bytecode": {
    "object": "0x608060405234801561001057600080fd5b506040516118ab3803806118ab83398101604081905261002f91610054565b600080546001600160a01b0319166001600160a01b0392909216919091179055610084565b60006020828403121561006657600080fd5b81516001600160a01b038116811461007d57600080fd5b9392505050565b611818806100936000396000f3fe608060405234801561001057600080fd5b50600436106100ea5760003560e01c8063800a7e451161008c578063bf90623211610066578063bf90623214610228578063c5f93a0614610248578063e4cc8b6214610271578063f14575571461028457600080fd5b8063800a7e45146101ec578063abb416d214610202578063bdd1daaa1461021557600080fd5b80636f36f826116100c85780636f36f8261461017657806371cfacc5146101895780637e171635146101b95780637ede1c07146101cc57600080fd5b8063111870d9146100ef57806311a7a4c0146101045780633ac8838d14610135575b600080fd5b6101026100fd36600461118f565b6102a4565b005b61011761011236600461118f565b610348565b60405161012c99989796959493929190611226565b60405180910390f35b61015e61014336600461118f565b6003602052600090815260409020546001600160a01b031681565b6040516001600160a01b03909116815260200161012c565b61010261018436600461118f565b6105bc565b6101026101973660046112d0565b600080546001600160a01b0319166001600160a01b0392909216919091179055565b6101026101c7366004611397565b61073e565b6101df6101da36600461118f565b6108af565b60405161012c9190611516565b6101f4610b82565b60405190815260200161012c565b61010261021036600461118f565b610b92565b60005461015e906001600160a01b031681565b61023b61023636600461118f565b610cc4565b60405161012c9190611529565b61015e61025636600461118f565b6000908152600360205260409020546001600160a01b031690565b61015e61027f366004611576565b610d30565b610297610292366004611576565b610d68565b60405161012c9190611598565b600260008281526002602052604090206008015460ff1660038111156102cc576102cc6111ee565b036102ea5760405163055c4eb160e51b815260040160405180910390fd5b6000818152600260205260409020546001600160a01b0316331461032157604051635ec8235160e01b815260040160405180910390fd5b600081815260026020526040902060080180546003919060ff19166001835b021790555050565b600260205260009081526040902080546001820180546001600160a01b039092169291610374906115fa565b80601f01602080910402602001604051908101604052809291908181526020018280546103a0906115fa565b80156103ed5780601f106103c2576101008083540402835291602001916103ed565b820191906000526020600020905b8154815290600101906020018083116103d057829003601f168201915b505050505090806002015490806003015490806004015490806005018054610414906115fa565b80601f0160208091040260200160405190810160405280929190818152602001828054610440906115fa565b801561048d5780601f106104625761010080835404028352916020019161048d565b820191906000526020600020905b81548152906001019060200180831161047057829003601f168201915b5050505050908060060180546104a2906115fa565b80601f01602080910402602001604051908101604052809291908181526020018280546104ce906115fa565b801561051b5780601f106104f05761010080835404028352916020019161051b565b820191906000526020600020905b8154815290600101906020018083116104fe57829003601f168201915b505050505090806007018054610530906115fa565b80601f016020809104026020016040519081016040528092919081815260200182805461055c906115fa565b80156105a95780601f1061057e576101008083540402835291602001916105a9565b820191906000526020600020905b81548152906001019060200180831161058c57829003601f168201915b5050506008909301549192505060ff1689565b600160008281526002602052604090206008015460ff1660038111156105e4576105e46111ee565b14610602576040516301b1be2760e61b815260040160405180910390fd5b6000818152600260205260409020546001600160a01b0316331461063957604051635ec8235160e01b815260040160405180910390fd5b6000818152600260208190526040808320600801805460ff1916909217909155815490516370b1528b60e11b8152600481018490526001600160a01b039091169063e162a51690602401602060405180830381865afa1580156106a0573d6000803e3d6000fd5b505050506040513d601f19601f820116820180604052508101906106c49190611634565b90506000819050806001600160a01b031663f4ad96c86040518163ffffffff1660e01b8152600401600060405180830381600087803b15801561070657600080fd5b505af115801561071a573d6000803e3d6000fd5b5050506000938452505060026020525060409020600801805460ff19166003179055565b6000861161075f5760405163820bf1e560e01b815260040160405180910390fd5b61076d600180546001019055565b600061077860015490565b90506000604051806101200160405280336001600160a01b031681526020018a8152602001898152602001888152602001878152602001868152602001858152602001848152602001600060038111156107d4576107d46111ee565b90526000838152600260209081526040909120825181546001600160a01b0319166001600160a01b03909116178155908201519192508291600182019061081b90826116a0565b5060408201516002820155606082015160038201556080820151600482015560a0820151600582019061084e90826116a0565b5060c0820151600682019061086390826116a0565b5060e0820151600782019061087890826116a0565b5061010082015160088201805460ff1916600183600381111561089d5761089d6111ee565b02179055505050505050505050505050565b6108b761112a565b6000828152600260209081526040918290208251610120810190935280546001600160a01b0316835260018101805491928401916108f4906115fa565b80601f0160208091040260200160405190810160405280929190818152602001828054610920906115fa565b801561096d5780601f106109425761010080835404028352916020019161096d565b820191906000526020600020905b81548152906001019060200180831161095057829003601f168201915b505050505081526020016002820154815260200160038201548152602001600482015481526020016005820180546109a4906115fa565b80601f01602080910402602001604051908101604052809291908181526020018280546109d0906115fa565b8015610a1d5780601f106109f257610100808354040283529160200191610a1d565b820191906000526020600020905b815481529060010190602001808311610a0057829003601f168201915b50505050508152602001600682018054610a36906115fa565b80601f0160208091040260200160405190810160405280929190818152602001828054610a62906115fa565b8015610aaf5780601f10610a8457610100808354040283529160200191610aaf565b820191906000526020600020905b815481529060010190602001808311610a9257829003601f168201915b50505050508152602001600782018054610ac8906115fa565b80601f0160208091040260200160405190810160405280929190818152602001828054610af4906115fa565b8015610b415780601f10610b1657610100808354040283529160200191610b41565b820191906000526020600020905b815481529060010190602001808311610b2457829003601f168201915b5050509183525050600882015460209091019060ff166003811115610b6857610b686111ee565b6003811115610b7957610b796111ee565b90525092915050565b6000610b8d60015490565b905090565b600160008281526002602052604090206008015460ff166003811115610bba57610bba6111ee565b03610bd857604051630aa743e760e01b815260040160405180910390fd5b6000818152600260205260409020546001600160a01b03163303610c0f5760405163239700bf60e11b815260040160405180910390fd5b6000805482825260026020818152604080852092830154925460039092529384902054935163fe51c93160e01b815260048101929092526001600160a01b03908116602483015292831660448201526064810184905291169063fe51c93190608401600060405180830381600087803b158015610c8b57600080fd5b505af1158015610c9f573d6000803e3d6000fd5b505050600082815260026020526040902060080180546001925060ff19168280610340565b600081815260046020908152604091829020805483518184028101840190945280845260609392830182828015610d2457602002820191906000526020600020905b81546001600160a01b03168152600190910190602001808311610d06575b50505050509050919050565b60046020528160005260406000208181548110610d4c57600080fd5b6000918252602090912001546001600160a01b03169150829050565b60606000610d768385611776565b905082610d8260015490565b610d8c858461178d565b1115610da95781610d9c60015490565b610da691906117a0565b90505b60008167ffffffffffffffff811115610dc457610dc46112f4565b604051908082528060200260200182016040528015610dfd57816020015b610dea61112a565b815260200190600190039081610de25790505b50905060005b8281101561111e5760026000610e19838761178d565b610e2490600161178d565b815260208082019290925260409081016000208151610120810190925280546001600160a01b031682526001810180549293919291840191610e65906115fa565b80601f0160208091040260200160405190810160405280929190818152602001828054610e91906115fa565b8015610ede5780601f10610eb357610100808354040283529160200191610ede565b820191906000526020600020905b815481529060010190602001808311610ec157829003601f168201915b50505050508152602001600282015481526020016003820154815260200160048201548152602001600582018054610f15906115fa565b80601f0160208091040260200160405190810160405280929190818152602001828054610f41906115fa565b8015610f8e5780601f10610f6357610100808354040283529160200191610f8e565b820191906000526020600020905b815481529060010190602001808311610f7157829003601f168201915b50505050508152602001600682018054610fa7906115fa565b80601f0160208091040260200160405190810160405280929190818152602001828054610fd3906115fa565b80156110205780601f10610ff557610100808354040283529160200191611020565b820191906000526020600020905b81548152906001019060200180831161100357829003601f168201915b50505050508152602001600782018054611039906115fa565b80601f0160208091040260200160405190810160405280929190818152602001828054611065906115fa565b80156110b25780601f10611087576101008083540402835291602001916110b2565b820191906000526020600020905b81548152906001019060200180831161109557829003601f168201915b5050509183525050600882015460209091019060ff1660038111156110d9576110d96111ee565b60038111156110ea576110ea6111ee565b81525050828281518110611100576111006117b3565b60200260200101819052508080611116906117c9565b915050610e03565b50925050505b92915050565b60405180610120016040528060006001600160a01b03168152602001606081526020016000815260200160008152602001600081526020016060815260200160608152602001606081526020016000600381111561118a5761118a6111ee565b905290565b6000602082840312156111a157600080fd5b5035919050565b6000815180845260005b818110156111ce576020818501810151868301820152016111b2565b506000602082860101526020601f19601f83011685010191505092915050565b634e487b7160e01b600052602160045260246000fd5b6004811061122257634e487b7160e01b600052602160045260246000fd5b9052565b6001600160a01b038a1681526101206020820181905260009061124b8382018c6111a8565b905089604084015288606084015287608084015282810360a084015261127181886111a8565b905082810360c084015261128581876111a8565b905082810360e084015261129981866111a8565b9150506112aa610100830184611204565b9a9950505050505050505050565b6001600160a01b03811681146112cd57600080fd5b50565b6000602082840312156112e257600080fd5b81356112ed816112b8565b9392505050565b634e487b7160e01b600052604160045260246000fd5b600082601f83011261131b57600080fd5b813567ffffffffffffffff80821115611336576113366112f4565b604051601f8301601f19908116603f0116810190828211818310171561135e5761135e6112f4565b8160405283815286602085880101111561137757600080fd5b836020870160208301376000602085830101528094505050505092915050565b600080600080600080600060e0888a0312156113b257600080fd5b873567ffffffffffffffff808211156113ca57600080fd5b6113d68b838c0161130a565b985060208a0135975060408a0135965060608a0135955060808a013591508082111561140157600080fd5b61140d8b838c0161130a565b945060a08a013591508082111561142357600080fd5b61142f8b838c0161130a565b935060c08a013591508082111561144557600080fd5b506114528a828b0161130a565b91505092959891949750929550565b80516001600160a01b031682526000610120602083015181602086015261148a828601826111a8565b91505060408301516040850152606083015160608501526080830151608085015260a083015184820360a08601526114c282826111a8565b91505060c083015184820360c08601526114dc82826111a8565b91505060e083015184820360e08601526114f682826111a8565b9150506101008084015161150c82870182611204565b5090949350505050565b6020815260006112ed6020830184611461565b6020808252825182820181905260009190848201906040850190845b8181101561156a5783516001600160a01b031683529284019291840191600101611545565b50909695505050505050565b6000806040838503121561158957600080fd5b50508035926020909101359150565b6000602080830181845280855180835260408601915060408160051b870101925083870160005b828110156115ed57603f198886030184526115db858351611461565b945092850192908501906001016115bf565b5092979650505050505050565b600181811c9082168061160e57607f821691505b60208210810361162e57634e487b7160e01b600052602260045260246000fd5b50919050565b60006020828403121561164657600080fd5b81516112ed816112b8565b601f82111561169b57600081815260208120601f850160051c810160208610156116785750805b601f850160051c820191505b8181101561169757828155600101611684565b5050505b505050565b815167ffffffffffffffff8111156116ba576116ba6112f4565b6116ce816116c884546115fa565b84611651565b602080601f83116001811461170357600084156116eb5750858301515b600019600386901b1c1916600185901b178555611697565b600085815260208120601f198616915b8281101561173257888601518255948401946001909101908401611713565b50858210156117505787850151600019600388901b60f8161c191681555b5050505050600190811b01905550565b634e487b7160e01b600052601160045260246000fd5b808202811582820484141761112457611124611760565b8082018082111561112457611124611760565b8181038181111561112457611124611760565b634e487b7160e01b600052603260045260246000fd5b6000600182016117db576117db611760565b506001019056fea2646970667358221220c67903dde712076903bcc86be4b5fe89b44e47a84945db23928a27611b039c1f64736f6c63430008130033",
    "linkReferences": {}
  },
  "methodIdentifiers": {
    "ads(uint256)": "11a7a4c0",
    "closeAd(uint256)": "111870d9",
    "confirmedBuyer(uint256)": "3ac8838d",
    "createAd(string,uint256,uint256,uint256,string,string,string)": "7e171635",
    "escrowFactory()": "bdd1daaa",
    "getAd(uint256)": "7ede1c07",
    "getAdCount()": "800a7e45",
    "getAds(uint256,uint256)": "f1457557",
    "getConfirmedBuyer(uint256)": "c5f93a06",
    "getInterestedBuyers(uint256)": "bf906232",
    "interestedBuyers(uint256,uint256)": "e4cc8b62",
    "setEscrowFactory(address)": "71cfacc5",
    "startTrade(uint256)": "abb416d2",
    "verifyBankTransfer(uint256)": "6f36f826"
  },
  "id": 25
}