{
  "abi": [
    {
      "inputs": [
        {
          "internalType": "address",
          "name": "_escrowFactory",
          "type": "address"
        }
      ],
      "stateMutability": "nonpayable",
      "type": "constructor"
    },
    {
      "inputs": [],
      "name": "AmountLessThanZero",
      "type": "error"
    },
    {
      "inputs": [],
      "name": "BankTransferNotVerified",
      "type": "error"
    },
    {
      "inputs": [],
      "name": "NotBuyer",
      "type": "error"
    },
    {
      "inputs": [],
      "name": "NotSeller",
      "type": "error"
    },
    {
      "inputs": [],
      "name": "TradeInProgress",
      "type": "error"
    },
    {
      "inputs": [],
      "name": "TradeNotInProgress",
      "type": "error"
    },
    {
      "inputs": [],
      "name": "TradeNotOpen",
      "type": "error"
    },
    {
      "inputs": [
        {
          "internalType": "uint256",
          "name": "",
          "type": "uint256"
        }
      ],
      "name": "ads",
      "outputs": [
        {
          "internalType": "address",
          "name": "seller",
          "type": "address"
        },
        {
          "internalType": "string",
          "name": "token",
          "type": "string"
        },
        {
          "internalType": "uint256",
          "name": "amount",
          "type": "uint256"
        },
        {
          "internalType": "uint256",
          "name": "price",
          "type": "uint256"
        },
        {
          "internalType": "uint256",
          "name": "duration",
          "type": "uint256"
        },
        {
          "internalType": "string",
          "name": "paymentMethod",
          "type": "string"
        },
        {
          "internalType": "string",
          "name": "name",
          "type": "string"
        },
        {
          "internalType": "string",
          "name": "accountNumber",
          "type": "string"
        },
        {
          "internalType": "enum Listings.State",
          "name": "state",
          "type": "uint8"
        }
      ],
      "stateMutability": "view",
      "type": "function"
    },
    {
      "inputs": [
        {
          "internalType": "uint256",
          "name": "adIndex",
          "type": "uint256"
        }
      ],
      "name": "closeAd",
      "outputs": [],
      "stateMutability": "nonpayable",
      "type": "function"
    },
    {
      "inputs": [
        {
          "internalType": "uint256",
          "name": "adIndex",
          "type": "uint256"
        },
        {
          "internalType": "address",
          "name": "buyer",
          "type": "address"
        }
      ],
      "name": "confirmBuyer",
      "outputs": [],
      "stateMutability": "nonpayable",
      "type": "function"
    },
    {
      "inputs": [
        {
          "internalType": "uint256",
          "name": "",
          "type": "uint256"
        }
      ],
      "name": "confirmedBuyer",
      "outputs": [
        {
          "internalType": "address",
          "name": "",
          "type": "address"
        }
      ],
      "stateMutability": "view",
      "type": "function"
    },
    {
      "inputs": [
        {
          "internalType": "string",
          "name": "_token",
          "type": "string"
        },
        {
          "internalType": "uint256",
          "name": "_amount",
          "type": "uint256"
        },
        {
          "internalType": "uint256",
          "name": "_price",
          "type": "uint256"
        },
        {
          "internalType": "uint256",
          "name": "_duration",
          "type": "uint256"
        },
        {
          "internalType": "string",
          "name": "_paymentMethod",
          "type": "string"
        },
        {
          "internalType": "string",
          "name": "_name",
          "type": "string"
        },
        {
          "internalType": "string",
          "name": "_accountNumber",
          "type": "string"
        }
      ],
      "name": "createAd",
      "outputs": [],
      "stateMutability": "nonpayable",
      "type": "function"
    },
    {
      "inputs": [],
      "name": "escrowFactory",
      "outputs": [
        {
          "internalType": "contract EscrowFactoryContract",
          "name": "",
          "type": "address"
        }
      ],
      "stateMutability": "view",
      "type": "function"
    },
    {
      "inputs": [
        {
          "internalType": "uint256",
          "name": "adIndex",
          "type": "uint256"
        }
      ],
      "name": "getAd",
      "outputs": [
        {
          "components": [
            {
              "internalType": "address",
              "name": "seller",
              "type": "address"
            },
            {
              "internalType": "string",
              "name": "token",
              "type": "string"
            },
            {
              "internalType": "uint256",
              "name": "amount",
              "type": "uint256"
            },
            {
              "internalType": "uint256",
              "name": "price",
              "type": "uint256"
            },
            {
              "internalType": "uint256",
              "name": "duration",
              "type": "uint256"
            },
            {
              "internalType": "string",
              "name": "paymentMethod",
              "type": "string"
            },
            {
              "internalType": "string",
              "name": "name",
              "type": "string"
            },
            {
              "internalType": "string",
              "name": "accountNumber",
              "type": "string"
            },
            {
              "internalType": "enum Listings.State",
              "name": "state",
              "type": "uint8"
            }
          ],
          "internalType": "struct Listings.SellAd",
          "name": "",
          "type": "tuple"
        }
      ],
      "stateMutability": "view",
      "type": "function"
    },
    {
      "inputs": [],
      "name": "getAdCount",
      "outputs": [
        {
          "internalType": "uint256",
          "name": "",
          "type": "uint256"
        }
      ],
      "stateMutability": "view",
      "type": "function"
    },
    {
      "inputs": [
        {
          "internalType": "uint256",
          "name": "page",
          "type": "uint256"
        },
        {
          "internalType": "uint256",
          "name": "perPage",
          "type": "uint256"
        }
      ],
      "name": "getAds",
      "outputs": [
        {
          "components": [
            {
              "internalType": "address",
              "name": "seller",
              "type": "address"
            },
            {
              "internalType": "string",
              "name": "token",
              "type": "string"
            },
            {
              "internalType": "uint256",
              "name": "amount",
              "type": "uint256"
            },
            {
              "internalType": "uint256",
              "name": "price",
              "type": "uint256"
            },
            {
              "internalType": "uint256",
              "name": "duration",
              "type": "uint256"
            },
            {
              "internalType": "string",
              "name": "paymentMethod",
              "type": "string"
            },
            {
              "internalType": "string",
              "name": "name",
              "type": "string"
            },
            {
              "internalType": "string",
              "name": "accountNumber",
              "type": "string"
            },
            {
              "internalType": "enum Listings.State",
              "name": "state",
              "type": "uint8"
            }
          ],
          "internalType": "struct Listings.SellAd[]",
          "name": "",
          "type": "tuple[]"
        }
      ],
      "stateMutability": "view",
      "type": "function"
    },
    {
      "inputs": [
        {
          "internalType": "uint256",
          "name": "adIndex",
          "type": "uint256"
        }
      ],
      "name": "getConfirmedBuyer",
      "outputs": [
        {
          "internalType": "address",
          "name": "",
          "type": "address"
        }
      ],
      "stateMutability": "view",
      "type": "function"
    },
    {
      "inputs": [
        {
          "internalType": "uint256",
          "name": "adIndex",
          "type": "uint256"
        }
      ],
      "name": "getInterestedBuyers",
      "outputs": [
        {
          "internalType": "address[]",
          "name": "",
          "type": "address[]"
        }
      ],
      "stateMutability": "view",
      "type": "function"
    },
    {
      "inputs": [
        {
          "internalType": "uint256",
          "name": "",
          "type": "uint256"
        },
        {
          "internalType": "uint256",
          "name": "",
          "type": "uint256"
        }
      ],
      "name": "interestedBuyers",
      "outputs": [
        {
          "internalType": "address",
          "name": "",
          "type": "address"
        }
      ],
      "stateMutability": "view",
      "type": "function"
    },
    {
      "inputs": [
        {
          "internalType": "address",
          "name": "_escrowFactory",
          "type": "address"
        }
      ],
      "name": "setEscrowFactory",
      "outputs": [],
      "stateMutability": "nonpayable",
      "type": "function"
    },
    {
      "inputs": [
        {
          "internalType": "uint256",
          "name": "adIndex",
          "type": "uint256"
        }
      ],
      "name": "showInterest",
      "outputs": [],
      "stateMutability": "nonpayable",
      "type": "function"
    },
    {
      "inputs": [
        {
          "internalType": "uint256",
          "name": "adIndex",
          "type": "uint256"
        }
      ],
      "name": "startTrade",
      "outputs": [],
      "stateMutability": "nonpayable",
      "type": "function"
    },
    {
      "inputs": [
        {
          "internalType": "uint256",
          "name": "adIndex",
          "type": "uint256"
        }
      ],
      "name": "verifyBankTransfer",
      "outputs": [],
      "stateMutability": "nonpayable",
      "type": "function"
    }
  ],
  "bytecode": {
    "object": "0x608060405234801561001057600080fd5b50604051611af9380380611af983398101604081905261002f91610054565b600080546001600160a01b0319166001600160a01b0392909216919091179055610084565b60006020828403121561006657600080fd5b81516001600160a01b038116811461007d57600080fd5b9392505050565b611a66806100936000396000f3fe608060405234801561001057600080fd5b50600436106101005760003560e01c8063a87532e311610097578063c5f93a0611610066578063c5f93a0614610271578063c6a9f2421461029a578063e4cc8b62146102ad578063f1457557146102c057600080fd5b8063a87532e314610218578063abb416d21461022b578063bdd1daaa1461023e578063bf9062321461025157600080fd5b806371cfacc5116100d357806371cfacc51461019f5780637e171635146101cf5780637ede1c07146101e2578063800a7e451461020257600080fd5b8063111870d91461010557806311a7a4c01461011a5780633ac8838d1461014b5780636f36f8261461018c575b600080fd5b6101186101133660046113ad565b6102e0565b005b61012d6101283660046113ad565b610384565b60405161014299989796959493929190611444565b60405180910390f35b6101746101593660046113ad565b6003602052600090815260409020546001600160a01b031681565b6040516001600160a01b039091168152602001610142565b61011861019a3660046113ad565b6105f8565b6101186101ad3660046114ee565b600080546001600160a01b0319166001600160a01b0392909216919091179055565b6101186101dd3660046115b5565b61077a565b6101f56101f03660046113ad565b6108eb565b6040516101429190611734565b61020a610bbe565b604051908152602001610142565b6101186102263660046113ad565b610bce565b6101186102393660046113ad565b610c79565b600054610174906001600160a01b031681565b61026461025f3660046113ad565b610de2565b6040516101429190611747565b61017461027f3660046113ad565b6000908152600360205260409020546001600160a01b031690565b6101186102a8366004611794565b610e4e565b6101746102bb3660046117c4565b610f4e565b6102d36102ce3660046117c4565b610f86565b60405161014291906117e6565b600260008281526002602052604090206008015460ff1660038111156103085761030861140c565b036103265760405163055c4eb160e51b815260040160405180910390fd5b6000818152600260205260409020546001600160a01b0316331461035d57604051635ec8235160e01b815260040160405180910390fd5b600081815260026020526040902060080180546003919060ff19166001835b021790555050565b600260205260009081526040902080546001820180546001600160a01b0390921692916103b090611848565b80601f01602080910402602001604051908101604052809291908181526020018280546103dc90611848565b80156104295780601f106103fe57610100808354040283529160200191610429565b820191906000526020600020905b81548152906001019060200180831161040c57829003601f168201915b50505050509080600201549080600301549080600401549080600501805461045090611848565b80601f016020809104026020016040519081016040528092919081815260200182805461047c90611848565b80156104c95780601f1061049e576101008083540402835291602001916104c9565b820191906000526020600020905b8154815290600101906020018083116104ac57829003601f168201915b5050505050908060060180546104de90611848565b80601f016020809104026020016040519081016040528092919081815260200182805461050a90611848565b80156105575780601f1061052c57610100808354040283529160200191610557565b820191906000526020600020905b81548152906001019060200180831161053a57829003601f168201915b50505050509080600701805461056c90611848565b80601f016020809104026020016040519081016040528092919081815260200182805461059890611848565b80156105e55780601f106105ba576101008083540402835291602001916105e5565b820191906000526020600020905b8154815290600101906020018083116105c857829003601f168201915b5050506008909301549192505060ff1689565b600160008281526002602052604090206008015460ff1660038111156106205761062061140c565b1461063e576040516301b1be2760e61b815260040160405180910390fd5b6000818152600260205260409020546001600160a01b0316331461067557604051635ec8235160e01b815260040160405180910390fd5b6000818152600260208190526040808320600801805460ff1916909217909155815490516370b1528b60e11b8152600481018490526001600160a01b039091169063e162a51690602401602060405180830381865afa1580156106dc573d6000803e3d6000fd5b505050506040513d601f19601f820116820180604052508101906107009190611882565b90506000819050806001600160a01b031663d06a00856040518163ffffffff1660e01b8152600401600060405180830381600087803b15801561074257600080fd5b505af1158015610756573d6000803e3d6000fd5b5050506000938452505060026020525060409020600801805460ff19166003179055565b6000861161079b5760405163820bf1e560e01b815260040160405180910390fd5b6107a9600180546001019055565b60006107b460015490565b90506000604051806101200160405280336001600160a01b031681526020018a8152602001898152602001888152602001878152602001868152602001858152602001848152602001600060038111156108105761081061140c565b90526000838152600260209081526040909120825181546001600160a01b0319166001600160a01b03909116178155908201519192508291600182019061085790826118ee565b5060408201516002820155606082015160038201556080820151600482015560a0820151600582019061088a90826118ee565b5060c0820151600682019061089f90826118ee565b5060e082015160078201906108b490826118ee565b5061010082015160088201805460ff191660018360038111156108d9576108d961140c565b02179055505050505050505050505050565b6108f3611348565b6000828152600260209081526040918290208251610120810190935280546001600160a01b03168352600181018054919284019161093090611848565b80601f016020809104026020016040519081016040528092919081815260200182805461095c90611848565b80156109a95780601f1061097e576101008083540402835291602001916109a9565b820191906000526020600020905b81548152906001019060200180831161098c57829003601f168201915b505050505081526020016002820154815260200160038201548152602001600482015481526020016005820180546109e090611848565b80601f0160208091040260200160405190810160405280929190818152602001828054610a0c90611848565b8015610a595780601f10610a2e57610100808354040283529160200191610a59565b820191906000526020600020905b815481529060010190602001808311610a3c57829003601f168201915b50505050508152602001600682018054610a7290611848565b80601f0160208091040260200160405190810160405280929190818152602001828054610a9e90611848565b8015610aeb5780601f10610ac057610100808354040283529160200191610aeb565b820191906000526020600020905b815481529060010190602001808311610ace57829003601f168201915b50505050508152602001600782018054610b0490611848565b80601f0160208091040260200160405190810160405280929190818152602001828054610b3090611848565b8015610b7d5780601f10610b5257610100808354040283529160200191610b7d565b820191906000526020600020905b815481529060010190602001808311610b6057829003601f168201915b5050509183525050600882015460209091019060ff166003811115610ba457610ba461140c565b6003811115610bb557610bb561140c565b90525092915050565b6000610bc960015490565b905090565b60008181526002602052604081206008015460ff166003811115610bf457610bf461140c565b14610c1257604051633ccdfa1160e01b815260040160405180910390fd5b6000818152600260205260409020546001600160a01b03163303610c495760405163239700bf60e11b815260040160405180910390fd5b60009081526004602090815260408220805460018101825590835291200180546001600160a01b03191633179055565b600160008281526002602052604090206008015460ff166003811115610ca157610ca161140c565b03610cbf57604051630aa743e760e01b815260040160405180910390fd5b6000818152600260205260409020546001600160a01b03163303610cf65760405163239700bf60e11b815260040160405180910390fd5b6000818152600360205260409020546001600160a01b03163314610d2d5760405163239700bf60e11b815260040160405180910390fd5b6000805482825260026020818152604080852092830154925460039092529384902054935163fe51c93160e01b815260048101929092526001600160a01b03908116602483015292831660448201526064810184905291169063fe51c93190608401600060405180830381600087803b158015610da957600080fd5b505af1158015610dbd573d6000803e3d6000fd5b505050600082815260026020526040902060080180546001925060ff1916828061037c565b600081815260046020908152604091829020805483518184028101840190945280845260609392830182828015610e4257602002820191906000526020600020905b81546001600160a01b03168152600190910190602001808311610e24575b50505050509050919050565b6000828152600260205260409020546001600160a01b03163303610e855760405163239700bf60e11b815260040160405180910390fd5b6000805b600084815260046020526040902054811015610f0057600084815260046020526040902080546001600160a01b038516919083908110610ecb57610ecb6119ae565b6000918252602090912001546001600160a01b031603610eee5760019150610f00565b80610ef8816119da565b915050610e89565b5080610f1f5760405163239700bf60e11b815260040160405180910390fd5b5060009182526003602052604090912080546001600160a01b0319166001600160a01b03909216919091179055565b60046020528160005260406000208181548110610f6a57600080fd5b6000918252602090912001546001600160a01b03169150829050565b60606000610f9483856119f3565b905082610fa060015490565b610faa8584611a0a565b1115610fc75781610fba60015490565b610fc49190611a1d565b90505b60008167ffffffffffffffff811115610fe257610fe2611512565b60405190808252806020026020018201604052801561101b57816020015b611008611348565b8152602001906001900390816110005790505b50905060005b8281101561133c57600260006110378387611a0a565b611042906001611a0a565b815260208082019290925260409081016000208151610120810190925280546001600160a01b03168252600181018054929391929184019161108390611848565b80601f01602080910402602001604051908101604052809291908181526020018280546110af90611848565b80156110fc5780601f106110d1576101008083540402835291602001916110fc565b820191906000526020600020905b8154815290600101906020018083116110df57829003601f168201915b5050505050815260200160028201548152602001600382015481526020016004820154815260200160058201805461113390611848565b80601f016020809104026020016040519081016040528092919081815260200182805461115f90611848565b80156111ac5780601f10611181576101008083540402835291602001916111ac565b820191906000526020600020905b81548152906001019060200180831161118f57829003601f168201915b505050505081526020016006820180546111c590611848565b80601f01602080910402602001604051908101604052809291908181526020018280546111f190611848565b801561123e5780601f106112135761010080835404028352916020019161123e565b820191906000526020600020905b81548152906001019060200180831161122157829003601f168201915b5050505050815260200160078201805461125790611848565b80601f016020809104026020016040519081016040528092919081815260200182805461128390611848565b80156112d05780601f106112a5576101008083540402835291602001916112d0565b820191906000526020600020905b8154815290600101906020018083116112b357829003601f168201915b5050509183525050600882015460209091019060ff1660038111156112f7576112f761140c565b60038111156113085761130861140c565b8152505082828151811061131e5761131e6119ae565b60200260200101819052508080611334906119da565b915050611021565b50925050505b92915050565b60405180610120016040528060006001600160a01b0316815260200160608152602001600081526020016000815260200160008152602001606081526020016060815260200160608152602001600060038111156113a8576113a861140c565b905290565b6000602082840312156113bf57600080fd5b5035919050565b6000815180845260005b818110156113ec576020818501810151868301820152016113d0565b506000602082860101526020601f19601f83011685010191505092915050565b634e487b7160e01b600052602160045260246000fd5b6004811061144057634e487b7160e01b600052602160045260246000fd5b9052565b6001600160a01b038a168152610120602082018190526000906114698382018c6113c6565b905089604084015288606084015287608084015282810360a084015261148f81886113c6565b905082810360c08401526114a381876113c6565b905082810360e08401526114b781866113c6565b9150506114c8610100830184611422565b9a9950505050505050505050565b6001600160a01b03811681146114eb57600080fd5b50565b60006020828403121561150057600080fd5b813561150b816114d6565b9392505050565b634e487b7160e01b600052604160045260246000fd5b600082601f83011261153957600080fd5b813567ffffffffffffffff8082111561155457611554611512565b604051601f8301601f19908116603f0116810190828211818310171561157c5761157c611512565b8160405283815286602085880101111561159557600080fd5b836020870160208301376000602085830101528094505050505092915050565b600080600080600080600060e0888a0312156115d057600080fd5b873567ffffffffffffffff808211156115e857600080fd5b6115f48b838c01611528565b985060208a0135975060408a0135965060608a0135955060808a013591508082111561161f57600080fd5b61162b8b838c01611528565b945060a08a013591508082111561164157600080fd5b61164d8b838c01611528565b935060c08a013591508082111561166357600080fd5b506116708a828b01611528565b91505092959891949750929550565b80516001600160a01b03168252600061012060208301518160208601526116a8828601826113c6565b91505060408301516040850152606083015160608501526080830151608085015260a083015184820360a08601526116e082826113c6565b91505060c083015184820360c08601526116fa82826113c6565b91505060e083015184820360e086015261171482826113c6565b9150506101008084015161172a82870182611422565b5090949350505050565b60208152600061150b602083018461167f565b6020808252825182820181905260009190848201906040850190845b818110156117885783516001600160a01b031683529284019291840191600101611763565b50909695505050505050565b600080604083850312156117a757600080fd5b8235915060208301356117b9816114d6565b809150509250929050565b600080604083850312156117d757600080fd5b50508035926020909101359150565b6000602080830181845280855180835260408601915060408160051b870101925083870160005b8281101561183b57603f1988860301845261182985835161167f565b9450928501929085019060010161180d565b5092979650505050505050565b600181811c9082168061185c57607f821691505b60208210810361187c57634e487b7160e01b600052602260045260246000fd5b50919050565b60006020828403121561189457600080fd5b815161150b816114d6565b601f8211156118e957600081815260208120601f850160051c810160208610156118c65750805b601f850160051c820191505b818110156118e5578281556001016118d2565b5050505b505050565b815167ffffffffffffffff81111561190857611908611512565b61191c816119168454611848565b8461189f565b602080601f83116001811461195157600084156119395750858301515b600019600386901b1c1916600185901b1785556118e5565b600085815260208120601f198616915b8281101561198057888601518255948401946001909101908401611961565b508582101561199e5787850151600019600388901b60f8161c191681555b5050505050600190811b01905550565b634e487b7160e01b600052603260045260246000fd5b634e487b7160e01b600052601160045260246000fd5b6000600182016119ec576119ec6119c4565b5060010190565b8082028115828204841417611342576113426119c4565b80820180821115611342576113426119c4565b81810381811115611342576113426119c456fea2646970667358221220fbb9067eb2a298fdd8609e29c03b0ca988aedeb7420004d41f6da0aca2c6550664736f6c63430008130033",
    "linkReferences": {}
  },
  "methodIdentifiers": {
    "ads(uint256)": "11a7a4c0",
    "closeAd(uint256)": "111870d9",
    "confirmBuyer(uint256,address)": "c6a9f242",
    "confirmedBuyer(uint256)": "3ac8838d",
    "createAd(string,uint256,uint256,uint256,string,string,string)": "7e171635",
    "escrowFactory()": "bdd1daaa",
    "getAd(uint256)": "7ede1c07",
    "getAdCount()": "800a7e45",
    "getAds(uint256,uint256)": "f1457557",
    "getConfirmedBuyer(uint256)": "c5f93a06",
    "getInterestedBuyers(uint256)": "bf906232",
    "interestedBuyers(uint256,uint256)": "e4cc8b62",
    "setEscrowFactory(address)": "71cfacc5",
    "showInterest(uint256)": "a87532e3",
    "startTrade(uint256)": "abb416d2",
    "verifyBankTransfer(uint256)": "6f36f826"
  },
  "id": 25
}