{
  "abi": [
    {
      "inputs": [
        {
          "internalType": "address",
          "name": "_escrowFactory",
          "type": "address"
        }
      ],
      "stateMutability": "nonpayable",
      "type": "constructor"
    },
    {
      "inputs": [],
      "name": "AmountLessThanZero",
      "type": "error"
    },
    {
      "inputs": [],
      "name": "BankTransferNotVerified",
      "type": "error"
    },
    {
      "inputs": [],
      "name": "NotBuyer",
      "type": "error"
    },
    {
      "inputs": [],
      "name": "NotSeller",
      "type": "error"
    },
    {
      "inputs": [],
      "name": "TradeInProgress",
      "type": "error"
    },
    {
      "inputs": [],
      "name": "TradeNotInProgress",
      "type": "error"
    },
    {
      "inputs": [],
      "name": "TradeNotOpen",
      "type": "error"
    },
    {
      "inputs": [
        {
          "internalType": "uint256",
          "name": "",
          "type": "uint256"
        }
      ],
      "name": "ads",
      "outputs": [
        {
          "internalType": "address",
          "name": "seller",
          "type": "address"
        },
        {
          "internalType": "string",
          "name": "token",
          "type": "string"
        },
        {
          "internalType": "uint256",
          "name": "amount",
          "type": "uint256"
        },
        {
          "internalType": "uint256",
          "name": "price",
          "type": "uint256"
        },
        {
          "internalType": "uint256",
          "name": "duration",
          "type": "uint256"
        },
        {
          "internalType": "string",
          "name": "paymentMethod",
          "type": "string"
        },
        {
          "internalType": "string",
          "name": "name",
          "type": "string"
        },
        {
          "internalType": "string",
          "name": "accountNumber",
          "type": "string"
        },
        {
          "internalType": "enum Listings.State",
          "name": "state",
          "type": "uint8"
        },
        {
          "internalType": "address",
          "name": "deployedEscrow",
          "type": "address"
        }
      ],
      "stateMutability": "view",
      "type": "function"
    },
    {
      "inputs": [
        {
          "internalType": "uint256",
          "name": "adIndex",
          "type": "uint256"
        }
      ],
      "name": "closeAd",
      "outputs": [],
      "stateMutability": "nonpayable",
      "type": "function"
    },
    {
      "inputs": [
        {
          "internalType": "string",
          "name": "_token",
          "type": "string"
        },
        {
          "internalType": "uint256",
          "name": "_amount",
          "type": "uint256"
        },
        {
          "internalType": "uint256",
          "name": "_price",
          "type": "uint256"
        },
        {
          "internalType": "uint256",
          "name": "_duration",
          "type": "uint256"
        },
        {
          "internalType": "string",
          "name": "_paymentMethod",
          "type": "string"
        },
        {
          "internalType": "string",
          "name": "_name",
          "type": "string"
        },
        {
          "internalType": "string",
          "name": "_accountNumber",
          "type": "string"
        }
      ],
      "name": "createAd",
      "outputs": [],
      "stateMutability": "nonpayable",
      "type": "function"
    },
    {
      "inputs": [],
      "name": "escrowFactory",
      "outputs": [
        {
          "internalType": "contract EscrowFactoryContract",
          "name": "",
          "type": "address"
        }
      ],
      "stateMutability": "view",
      "type": "function"
    },
    {
      "inputs": [
        {
          "internalType": "uint256",
          "name": "adIndex",
          "type": "uint256"
        }
      ],
      "name": "getAd",
      "outputs": [
        {
          "components": [
            {
              "internalType": "address",
              "name": "seller",
              "type": "address"
            },
            {
              "internalType": "string",
              "name": "token",
              "type": "string"
            },
            {
              "internalType": "uint256",
              "name": "amount",
              "type": "uint256"
            },
            {
              "internalType": "uint256",
              "name": "price",
              "type": "uint256"
            },
            {
              "internalType": "uint256",
              "name": "duration",
              "type": "uint256"
            },
            {
              "internalType": "string",
              "name": "paymentMethod",
              "type": "string"
            },
            {
              "internalType": "string",
              "name": "name",
              "type": "string"
            },
            {
              "internalType": "string",
              "name": "accountNumber",
              "type": "string"
            },
            {
              "internalType": "enum Listings.State",
              "name": "state",
              "type": "uint8"
            },
            {
              "internalType": "address",
              "name": "deployedEscrow",
              "type": "address"
            }
          ],
          "internalType": "struct Listings.SellAd",
          "name": "",
          "type": "tuple"
        }
      ],
      "stateMutability": "view",
      "type": "function"
    },
    {
      "inputs": [],
      "name": "getAdCount",
      "outputs": [
        {
          "internalType": "uint256",
          "name": "",
          "type": "uint256"
        }
      ],
      "stateMutability": "view",
      "type": "function"
    },
    {
      "inputs": [
        {
          "internalType": "uint256",
          "name": "page",
          "type": "uint256"
        },
        {
          "internalType": "uint256",
          "name": "perPage",
          "type": "uint256"
        }
      ],
      "name": "getAds",
      "outputs": [
        {
          "components": [
            {
              "internalType": "address",
              "name": "seller",
              "type": "address"
            },
            {
              "internalType": "string",
              "name": "token",
              "type": "string"
            },
            {
              "internalType": "uint256",
              "name": "amount",
              "type": "uint256"
            },
            {
              "internalType": "uint256",
              "name": "price",
              "type": "uint256"
            },
            {
              "internalType": "uint256",
              "name": "duration",
              "type": "uint256"
            },
            {
              "internalType": "string",
              "name": "paymentMethod",
              "type": "string"
            },
            {
              "internalType": "string",
              "name": "name",
              "type": "string"
            },
            {
              "internalType": "string",
              "name": "accountNumber",
              "type": "string"
            },
            {
              "internalType": "enum Listings.State",
              "name": "state",
              "type": "uint8"
            },
            {
              "internalType": "address",
              "name": "deployedEscrow",
              "type": "address"
            }
          ],
          "internalType": "struct Listings.SellAd[]",
          "name": "",
          "type": "tuple[]"
        }
      ],
      "stateMutability": "view",
      "type": "function"
    },
    {
      "inputs": [
        {
          "internalType": "address",
          "name": "_escrowFactory",
          "type": "address"
        }
      ],
      "name": "setEscrowFactory",
      "outputs": [],
      "stateMutability": "nonpayable",
      "type": "function"
    },
    {
      "inputs": [
        {
          "internalType": "uint256",
          "name": "adIndex",
          "type": "uint256"
        }
      ],
      "name": "startTrade",
      "outputs": [],
      "stateMutability": "nonpayable",
      "type": "function"
    },
    {
      "inputs": [
        {
          "internalType": "uint256",
          "name": "adIndex",
          "type": "uint256"
        }
      ],
      "name": "verifyBankTransfer",
      "outputs": [],
      "stateMutability": "nonpayable",
      "type": "function"
    }
  ],
  "bytecode": {
    "object": "0x608060405234801561001057600080fd5b506040516117a83803806117a883398101604081905261002f91610054565b600080546001600160a01b0319166001600160a01b0392909216919091179055610084565b60006020828403121561006657600080fd5b81516001600160a01b038116811461007d57600080fd5b9392505050565b611715806100936000396000f3fe608060405234801561001057600080fd5b506004361061009e5760003560e01c80637ede1c07116100665780637ede1c0714610140578063800a7e4514610160578063abb416d214610176578063bdd1daaa14610189578063f1457557146101b457600080fd5b8063111870d9146100a357806311a7a4c0146100b85780636f36f826146100ea57806371cfacc5146100fd5780637e1716351461012d575b600080fd5b6100b66100b13660046110b8565b6101d4565b005b6100cb6100c63660046110b8565b61026f565b6040516100e19a9998979695949392919061114f565b60405180910390f35b6100b66100f83660046110b8565b6104f4565b6100b661010b366004611205565b600080546001600160a01b0319166001600160a01b0392909216919091179055565b6100b661013b3660046112cc565b610676565b61015361014e3660046110b8565b61081a565b6040516100e19190611460565b610168610b07565b6040519081526020016100e1565b6100b66101843660046110b8565b610b17565b60005461019c906001600160a01b031681565b6040516001600160a01b0390911681526020016100e1565b6101c76101c2366004611473565b610c6e565b6040516100e19190611495565b600260008281526002602052604090206008015460ff1660038111156101fc576101fc611117565b0361021a5760405163055c4eb160e51b815260040160405180910390fd5b6000818152600260205260409020546001600160a01b0316331461025157604051635ec8235160e01b815260040160405180910390fd5b6000908152600260205260409020600801805460ff19166003179055565b600260205260009081526040902080546001820180546001600160a01b03909216929161029b906114f7565b80601f01602080910402602001604051908101604052809291908181526020018280546102c7906114f7565b80156103145780601f106102e957610100808354040283529160200191610314565b820191906000526020600020905b8154815290600101906020018083116102f757829003601f168201915b50505050509080600201549080600301549080600401549080600501805461033b906114f7565b80601f0160208091040260200160405190810160405280929190818152602001828054610367906114f7565b80156103b45780601f10610389576101008083540402835291602001916103b4565b820191906000526020600020905b81548152906001019060200180831161039757829003601f168201915b5050505050908060060180546103c9906114f7565b80601f01602080910402602001604051908101604052809291908181526020018280546103f5906114f7565b80156104425780601f1061041757610100808354040283529160200191610442565b820191906000526020600020905b81548152906001019060200180831161042557829003601f168201915b505050505090806007018054610457906114f7565b80601f0160208091040260200160405190810160405280929190818152602001828054610483906114f7565b80156104d05780601f106104a5576101008083540402835291602001916104d0565b820191906000526020600020905b8154815290600101906020018083116104b357829003601f168201915b5050506008909301549192505060ff8116906001600160a01b03610100909104168a565b600160008281526002602052604090206008015460ff16600381111561051c5761051c611117565b1461053a576040516301b1be2760e61b815260040160405180910390fd5b6000818152600260205260409020546001600160a01b0316331461057157604051635ec8235160e01b815260040160405180910390fd5b6000818152600260208190526040808320600801805460ff1916909217909155815490516370b1528b60e11b8152600481018490526001600160a01b039091169063e162a51690602401602060405180830381865afa1580156105d8573d6000803e3d6000fd5b505050506040513d601f19601f820116820180604052508101906105fc9190611531565b90506000819050806001600160a01b031663f4ad96c86040518163ffffffff1660e01b8152600401600060405180830381600087803b15801561063e57600080fd5b505af1158015610652573d6000803e3d6000fd5b5050506000938452505060026020525060409020600801805460ff19166003179055565b600086116106975760405163820bf1e560e01b815260040160405180910390fd5b6106a5600180546001019055565b60006106b060015490565b90506000604051806101400160405280336001600160a01b031681526020018a81526020018981526020018881526020018781526020018681526020018581526020018481526020016000600381111561070c5761070c611117565b8152600060209182018190528481526002825260409020825181546001600160a01b0319166001600160a01b039091161781559082015191925082916001820190610757908261159d565b5060408201516002820155606082015160038201556080820151600482015560a0820151600582019061078a908261159d565b5060c0820151600682019061079f908261159d565b5060e082015160078201906107b4908261159d565b5061010082015160088201805460ff191660018360038111156107d9576107d9611117565b02179055506101209190910151600890910180546001600160a01b0390921661010002610100600160a81b0319909216919091179055505050505050505050565b61082261104b565b6000828152600260209081526040918290208251610140810190935280546001600160a01b03168352600181018054919284019161085f906114f7565b80601f016020809104026020016040519081016040528092919081815260200182805461088b906114f7565b80156108d85780601f106108ad576101008083540402835291602001916108d8565b820191906000526020600020905b8154815290600101906020018083116108bb57829003601f168201915b5050505050815260200160028201548152602001600382015481526020016004820154815260200160058201805461090f906114f7565b80601f016020809104026020016040519081016040528092919081815260200182805461093b906114f7565b80156109885780601f1061095d57610100808354040283529160200191610988565b820191906000526020600020905b81548152906001019060200180831161096b57829003601f168201915b505050505081526020016006820180546109a1906114f7565b80601f01602080910402602001604051908101604052809291908181526020018280546109cd906114f7565b8015610a1a5780601f106109ef57610100808354040283529160200191610a1a565b820191906000526020600020905b8154815290600101906020018083116109fd57829003601f168201915b50505050508152602001600782018054610a33906114f7565b80601f0160208091040260200160405190810160405280929190818152602001828054610a5f906114f7565b8015610aac5780601f10610a8157610100808354040283529160200191610aac565b820191906000526020600020905b815481529060010190602001808311610a8f57829003601f168201915b5050509183525050600882015460209091019060ff166003811115610ad357610ad3611117565b6003811115610ae457610ae4611117565b81526008919091015461010090046001600160a01b031660209091015292915050565b6000610b1260015490565b905090565b600160008281526002602052604090206008015460ff166003811115610b3f57610b3f611117565b03610b5d57604051630aa743e760e01b815260040160405180910390fd5b6000818152600260205260409020546001600160a01b03163303610b945760405163239700bf60e11b815260040160405180910390fd5b60008054828252600260208190526040808420918201549154905163fe51c93160e01b815260048101929092526001600160a01b039081166024830152336044830152606482018590529091169063fe51c931906084016020604051808303816000875af1158015610c0a573d6000803e3d6000fd5b505050506040513d601f19601f82011682018060405250810190610c2e9190611531565b600092835260026020526040909220600801805460016001600160a01b039094166101000260ff19166001600160a81b0319909116179290921790915550565b60606000610c7c8385611673565b905082610c8860015490565b610c92858461168a565b1115610caf5781610ca260015490565b610cac919061169d565b90505b60008167ffffffffffffffff811115610cca57610cca611229565b604051908082528060200260200182016040528015610d0357816020015b610cf061104b565b815260200190600190039081610ce85790505b50905060005b8281101561103f5760026000610d1f838761168a565b610d2a90600161168a565b815260208082019290925260409081016000208151610140810190925280546001600160a01b031682526001810180549293919291840191610d6b906114f7565b80601f0160208091040260200160405190810160405280929190818152602001828054610d97906114f7565b8015610de45780601f10610db957610100808354040283529160200191610de4565b820191906000526020600020905b815481529060010190602001808311610dc757829003601f168201915b50505050508152602001600282015481526020016003820154815260200160048201548152602001600582018054610e1b906114f7565b80601f0160208091040260200160405190810160405280929190818152602001828054610e47906114f7565b8015610e945780601f10610e6957610100808354040283529160200191610e94565b820191906000526020600020905b815481529060010190602001808311610e7757829003601f168201915b50505050508152602001600682018054610ead906114f7565b80601f0160208091040260200160405190810160405280929190818152602001828054610ed9906114f7565b8015610f265780601f10610efb57610100808354040283529160200191610f26565b820191906000526020600020905b815481529060010190602001808311610f0957829003601f168201915b50505050508152602001600782018054610f3f906114f7565b80601f0160208091040260200160405190810160405280929190818152602001828054610f6b906114f7565b8015610fb85780601f10610f8d57610100808354040283529160200191610fb8565b820191906000526020600020905b815481529060010190602001808311610f9b57829003601f168201915b5050509183525050600882015460209091019060ff166003811115610fdf57610fdf611117565b6003811115610ff057610ff0611117565b81526008919091015461010090046001600160a01b03166020909101528251839083908110611021576110216116b0565b60200260200101819052508080611037906116c6565b915050610d09565b50925050505b92915050565b60405180610140016040528060006001600160a01b0316815260200160608152602001600081526020016000815260200160008152602001606081526020016060815260200160608152602001600060038111156110ab576110ab611117565b8152600060209091015290565b6000602082840312156110ca57600080fd5b5035919050565b6000815180845260005b818110156110f7576020818501810151868301820152016110db565b506000602082860101526020601f19601f83011685010191505092915050565b634e487b7160e01b600052602160045260246000fd5b6004811061114b57634e487b7160e01b600052602160045260246000fd5b9052565b6001600160a01b038b81168252610140602083018190526000916111758483018e6110d1565b91508b60408501528a606085015289608085015283820360a085015261119b828a6110d1565b915083820360c08501526111af82896110d1565b915083820360e08501526111c382886110d1565b92506111d361010085018761112d565b80851661012085015250509b9a5050505050505050505050565b6001600160a01b038116811461120257600080fd5b50565b60006020828403121561121757600080fd5b8135611222816111ed565b9392505050565b634e487b7160e01b600052604160045260246000fd5b600082601f83011261125057600080fd5b813567ffffffffffffffff8082111561126b5761126b611229565b604051601f8301601f19908116603f0116810190828211818310171561129357611293611229565b816040528381528660208588010111156112ac57600080fd5b836020870160208301376000602085830101528094505050505092915050565b600080600080600080600060e0888a0312156112e757600080fd5b873567ffffffffffffffff808211156112ff57600080fd5b61130b8b838c0161123f565b985060208a0135975060408a0135965060608a0135955060808a013591508082111561133657600080fd5b6113428b838c0161123f565b945060a08a013591508082111561135857600080fd5b6113648b838c0161123f565b935060c08a013591508082111561137a57600080fd5b506113878a828b0161123f565b91505092959891949750929550565b80516001600160a01b03168252600061014060208301518160208601526113bf828601826110d1565b91505060408301516040850152606083015160608501526080830151608085015260a083015184820360a08601526113f782826110d1565b91505060c083015184820360c086015261141182826110d1565b91505060e083015184820360e086015261142b82826110d1565b915050610100808401516114418287018261112d565b5050610120928301516001600160a01b03169390920192909252919050565b6020815260006112226020830184611396565b6000806040838503121561148657600080fd5b50508035926020909101359150565b6000602080830181845280855180835260408601915060408160051b870101925083870160005b828110156114ea57603f198886030184526114d8858351611396565b945092850192908501906001016114bc565b5092979650505050505050565b600181811c9082168061150b57607f821691505b60208210810361152b57634e487b7160e01b600052602260045260246000fd5b50919050565b60006020828403121561154357600080fd5b8151611222816111ed565b601f82111561159857600081815260208120601f850160051c810160208610156115755750805b601f850160051c820191505b8181101561159457828155600101611581565b5050505b505050565b815167ffffffffffffffff8111156115b7576115b7611229565b6115cb816115c584546114f7565b8461154e565b602080601f83116001811461160057600084156115e85750858301515b600019600386901b1c1916600185901b178555611594565b600085815260208120601f198616915b8281101561162f57888601518255948401946001909101908401611610565b508582101561164d5787850151600019600388901b60f8161c191681555b5050505050600190811b01905550565b634e487b7160e01b600052601160045260246000fd5b80820281158282048414176110455761104561165d565b808201808211156110455761104561165d565b818103818111156110455761104561165d565b634e487b7160e01b600052603260045260246000fd5b6000600182016116d8576116d861165d565b506001019056fea2646970667358221220e9ad0a6914cef8d6e6ad6ebddb0affb8624f035d41fa0e1307d5c710ac313ad464736f6c63430008130033",
    "linkReferences": {}
  },
  "methodIdentifiers": {
    "ads(uint256)": "11a7a4c0",
    "closeAd(uint256)": "111870d9",
    "createAd(string,uint256,uint256,uint256,string,string,string)": "7e171635",
    "escrowFactory()": "bdd1daaa",
    "getAd(uint256)": "7ede1c07",
    "getAdCount()": "800a7e45",
    "getAds(uint256,uint256)": "f1457557",
    "setEscrowFactory(address)": "71cfacc5",
    "startTrade(uint256)": "abb416d2",
    "verifyBankTransfer(uint256)": "6f36f826"
  },
  "id": 27
}